{
  "contractName": "CellSubscription",
  "abi": [
    {
      "inputs": [
        {
          "internalType": "uint256",
          "name": "cost",
          "type": "uint256"
        }
      ],
      "payable": false,
      "stateMutability": "nonpayable",
      "type": "constructor"
    },
    {
      "constant": false,
      "inputs": [],
      "name": "makePayment",
      "outputs": [],
      "payable": true,
      "stateMutability": "payable",
      "type": "function"
    },
    {
      "constant": false,
      "inputs": [],
      "name": "withdrawBalance",
      "outputs": [],
      "payable": false,
      "stateMutability": "nonpayable",
      "type": "function"
    },
    {
      "constant": true,
      "inputs": [
        {
          "internalType": "uint256",
          "name": "monthsElapsed",
          "type": "uint256"
        }
      ],
      "name": "isBalanceCurrent",
      "outputs": [
        {
          "internalType": "bool",
          "name": "",
          "type": "bool"
        }
      ],
      "payable": false,
      "stateMutability": "view",
      "type": "function"
    }
  ],
  "bytecode": "0x608060405234801561001057600080fd5b5060405161018a38038061018a8339818101604052602081101561003357600080fd5b8101908080519060200190929190505050806000819055505061012f8061005b6000396000f3fe60806040526004361060305760003560e01c80635fd8c7101460355780636993ab77146049578063d8d79700146098575b600080fd5b348015604057600080fd5b50604760a0565b005b348015605457600080fd5b50607e60048036036020811015606957600080fd5b810190808035906020019092919050505060e8565b604051808215151515815260200191505060405180910390f35b609e60f8565b005b3373ffffffffffffffffffffffffffffffffffffffff166108fc479081150290604051600060405180830381858888f1935050505015801560e5573d6000803e3d6000fd5b50565b6000478260005402149050919050565b56fea265627a7a723158209b3ebb6bb093edbca547b6661111b4a4e5bfdaf856183c8a6bbf85665c2cbcb564736f6c63430005100032",
  "source": "pragma solidity >=0.4.22 <0.7.0;\r\n\r\ncontract CellSubscription {\r\n\tuint256 monthlyCost;\r\n\r\n    constructor(uint256 cost) public {\r\n        monthlyCost = cost;\r\n    }\r\n\r\n    function makePayment() payable public {\r\n    \r\n    }\r\n\r\n    function withdrawBalance() public {\r\n        msg.sender.transfer(address(this).balance);\r\n    }\r\n\r\n    function isBalanceCurrent(uint256 monthsElapsed) public view returns (bool) {\r\n        return monthlyCost * monthsElapsed == address(this).balance;\r\n    }\r\n}",
  "sourcePath": "E:/Universidad/Taller de Grado/TestTruffleTeams/contracts/CellSubscription.sol",
  "compiler": {
    "name": "solc",
    "version": "0.5.16+commit.9c3226ce.Emscripten.clang"
  },
  "schemaVersion": "3.4.1",
  "updatedAt": "2021-06-11T04:04:29.878Z",
  "devdoc": {
    "methods": {}
  },
  "userdoc": {
    "methods": {}
  }
}